:020000040800F2
:10000000903F0020450100088D2D0008AD1B000821
:10001000AF2C0008D50F00082D4800080000000094
:100020000000000000000000000000006D3C00081F
:100030004514000800000000793A0008D13D00088E
:100040005F0100085F0100085F0100085F01000810
:100050005F0100085F0100085F0100085F01000800
:100060005F0100085F0100085F0100085F010008F0
:100070005F0100085F0100085F0100085F010008E0
:100080005F0100085F0100085F0100085F010008D0
:100090005F0100085F0100085F0100085F010008C0
:1000A0005F0100085F0100085F0100085F010008B0
:1000B0005F0100085F0100084D4000085F01000873
:1000C0005F0100085F0100085F0100085F01000890
:1000D0005F01000825420008AD42000845430008C2
:1000E0005F0100085F0100085F0100085F01000870
:1000F0005F0100085F0100085F0100085F01000860
:100100005F0100085F0100085F0100085F0100084F
:100110005F0100085F0100085F0100085F0100083F
:100120005F0100085F0100085F0100085F0100082F
:10013000DFF80CD000F0D0FE00480047155800084A
:10014000903F00200648804706480047FEE7FEE74C
:10015000FEE7FEE7FEE7FEE7FEE7FEE7FEE7FEE777
:10016000053E000831010008A0F14101192900D81D
:100170002030704740EA01039B0703D009E008C91B
:10018000121F08C0042AFAD203E011F8013B00F85C
:10019000013B521EF9D27047D2B201E000F8012BA8
:1001A000491EFBD270470022F6E710B513460A46F7
:1001B00004461946FFF7F0FF204610BD421E12F814
:1001C000013F002BFBD111F8013B02F8013B002B52
:1001D000F9D1704730B505462A460B4612F8010B97
:1001E00013F8014B08B1A042F8D01CB1002802D08E
:1001F0006D1CF1E7284630BDCAB2401E10F8011F41
:100200008A4202D00029F9D100207047421C10F820
:10021000011B0029FBD1801A704710B5002200E0B5
:10022000521C835C8C5CA34201D1002BF8D1D8B264
:10023000E1B2401A10BD10B5044600E0401C03783E
:10024000002BFBD100E0401C521E04D311F8013BEF
:100250000370002BF7D100210170204610BD30B58E
:1002600005460020034600E05B1C934205D2EC5C8F
:10027000C85C201A01D1002CF6D130BD2DE9FF4F0A
:10028000087883B09946FF2805D0491C2D2804D052
:100290000024002008E000200BE00124F9E700EB37
:1002A000800003EB4000491C0B78FF2BF7D104B111
:1002B000404200230293147819461D462D2C01D08C
:1002C0002B2C04D1521C2D2C13D000240294AA46AE
:1002D0001478FF2C0FD00A25A3FB057801FB0581BC
:1002E0004FF0000C03FB0C11521CE3194AEB010107
:1002F000EEE70124EAE7814453EA010002D019F550
:10030000C87F06DA03980021C0E9001107B0BDE8F4
:10031000F08F0025AE4E2F46DFF8B882184600F069
:10032000B6FDCDE90001B9F1000002DAC9F100041F
:1003300000E004460023A74A1AEB030B42EB045AE1
:1003400012E0E00707D02A4633463846414600F01F
:1003500082FA074688462A4633461046194600F078
:100360007AFA05460E466410002CEAD1DDE9000158
:10037000B9F1000F5A46534606DA00F019FD3A4625
:10038000434600F015FD05E000F065FA3A464346A5
:1003900000F061FA029A0AB181F00041039AC2E9C1
:1003A0000001B3E72DE9FF4F1F468DB0D7E90146A5
:1003B0004FF0FF382E2045464FF000090B90B969E9
:1003C0006D1C0E988847396A824688470028F6D106
:1003D000BAF1FF3F0AD024F4D064002E11DDBAF147
:1003E0002B0F08D0BAF12D0F0BD102E0404611B00F
:1003F0008DE744F48064B9696D1C0E988847824685
:10040000761E6946600501D52D2000E02B208DF871
:10041000000001F1010B0DF1200809E0B9696D1C24
:100420000E98884782460F9844F40074761E056043
:10043000002E02DDBAF1300FF0D00B998A453ED183
:1004400044F0800406E00F99681CA9F1010944F406
:1004500000740860B9696D1C761E0E988847824644
:100460003028F0D02BE00B998A4505D1200603D423
:1004700044F08004761E18E0504604F047FC08B3B0
:100480000DF11301761E44F400748B4508D2AAF1D5
:1004900030000BF8010B200607D5A9F1010003E09D
:1004A000200602D409F101008146A00502D50F996A
:1004B000681C0860B9696D1C0E9888478246002E3A
:1004C000D1DC53E0002E51DDBAF1650F02D0BAF154
:1004D000450F4BD1A00549D5B9696D1C24F4407472
:1004E000761E0E9888478246002E0CDD2B2804D0FD
:1004F000BAF12D0F07D144F48074B9696D1C0E98C0
:1005000088478246761EE00501D52D2100E02B218B
:1005100008F8011BCDF82C8021E00DF12901761E91
:1005200044F4007488450CD2AAF1300010F0FF00AA
:1005300088F8000002D10B99884509D908F1010813
:1005400006E0E00501D5244801E042F20F70814643
:10055000B9696D1C0E98884782460F980560002E79
:1005600004DD504604F0D2FB0028D6D1F9690E987C
:100570008847FF208BF8000088F8000000200690D4
:1005800007904B466A4608A906A8FFF777FEA00524
:1005900002D46FF001002AE714F0240F0AD0E0071C
:1005A00014D1DDE906123868031D3B600068C0E91C
:1005B00000120BE0DDE9060100F050FA0146E00709
:1005C00004D13868021D3A600068016028460EE7D1
:1005D000000014400000F03FF1D8FFFFF0B480EAC3
:1005E0000102D40F4200B2EB410F02D2024608468C
:1005F00011464A0042D0C30DDDB2C1F3C752AD1A55
:10060000202D35DAC1F3160141F4000204B1524243
:10061000C5F1200602FA06F12A411044B3EBD05F7F
:1006200023D0C4B1012DA0EBC35009DCF0BC4FF0C6
:10063000004202EAC352DBB200F5000000F02DBB1D
:10064000400000F1807000EBC350A0F1807040EAE0
:10065000D170490009E0490841EAC071A0EBC350DC
:1006600000F50000400800EBC350F0BC00F00CBBEC
:100670006142012202EB4101001BF6E7F0BC70472A
:1006800081F00041AAE780F00040A7E730B480EA9B
:10069000010202F0004530F0004221F0004013D08A
:1006A00090B1C30DD40DC2F31601C0F31600E41AC5
:1006B00041F4000140F400027D34914201D3641CF6
:1006C00000E04900002C02DA30BC002070474FF4F3
:1006D00000000023914201D3891A034340084FEAE6
:1006E0004101F7D151B1914202D14FF0004105E0F3
:1006F00002D24FF0010101E06FF0010103EBC450A1
:10070000284430BC00F0C0BA2DE9FE4F804681EA93
:100710000300C00F0C46009021F0004123F000457B
:10072000B8EB0200A94105D24046214690461C463E
:100730000B46024623F00040104347D0270DC7F375
:100740000A00C3F30A510290401A019040286BDA64
:10075000C3F3130040F4801B0098924620B100239D
:10076000D2EB030A63EB0B0B01985946C0F1400230
:10077000504600F0EAF906460D4650465946019AA1
:1007800000F002FA10EB08006141002487EA1152E0
:1007900084EAE7731A4340D0009A62B3019A012AAF
:1007A0004FEA075215DC001B61EB02014FF00042DB
:1007B00002EA0752CDE90042001C41F580113246A1
:1007C0002B4600F0A7FA03B0BDE8F08F4046214663
:1007D000F9E7001B61EB0201001C41F580130018D2
:1007E0005B412018A2F5001747EB030140EAD570E2
:1007F000B6196D4111E06D084FEA360645EAC0753D
:100800004FEA0752001B61EB0201001C41F5801109
:1008100049084FEA30000019514132462B4603B0D7
:10082000BDE8F04F00F067BA0098012240000023B5
:10083000D0EB020263EBE073009821464FEAE074CC
:10084000B8EB000061EB0401E9E783F000435BE7EC
:1008500081F0004158E72DE9FE4F81EA030404F0DE
:10086000004421F0004100944FF0000B23F00043BE
:1008700050EA01045ED052EA03045BD0C3F30A5489
:10088000C1F30A552C44A4F2F3340194A0FB0254A2
:10089000C1F3130141F48011C3F3130343F4801334
:1008A00001FB024400FB034E840A970A44EA815488
:1008B00047EA8357A4FB076802958D0A05FB078565
:1008C0004FEA932C04FB0C542705029D4FEA06586F
:1008D00047EA1637B5EB08056EEB070C870E920E4C
:1008E00047EA811742EA8312A7FB0201B6EB0B012C
:1008F00064EB00042B0D43EA0C335E1844EB1C50F0
:10090000DA465146E7FB0201C5F313044FEA0B3305
:1009100043EA14534FEA0432019C43EA0603A4F16C
:100920000C040294009CCDE900B400F0F3F903B08C
:10093000BDE8F08F00200146F9E79623002211461A
:1009400000F0ABB90EB5C10F80EAE0700844CA07E9
:10095000002140F233438DE80E000A460B4600F0BA
:10096000D9F903B000BD70B5C1F30A5201F00045DA
:100970000024C1F3130140F2FF3341F480119A4285
:1009800001DA002070BD40F233439A42A2F23342B2
:1009900003DC524200F0E8F800E090402C43F1D034
:1009A000404270BDC1F30A5210B5C1F3130140F2C9
:1009B000FF3341F480119A4201DA002010BD40F269
:1009C00033439A42A2F2334203DC524200F0CCF8A5
:1009D00010BD904010BD00F0004230F000400AD041
:1009E000C10D01F56071C0F3160042EA0151C20861
:1009F00040071143704700200146704730B5041E80
:100A000071F1000404DB4FF00044404264EB01014B
:100A1000141E73F1000405DB1C464FF000435242E4
:100A200063EB04038B4208BF824230BD30B5041E25
:100A300071F1000404DB4FF00044404264EB01011B
:100A4000141E73F1000405DB1C464FF000435242B4
:100A500063EB0403994208BF904230BD01F00043AC
:100A600030B421F0004150EA010206D00A0DA2F58F
:100A70006072C1F31301002A02DC30BC0020704711
:100A8000440F44EAC104C100E01830BC00EBC2507E
:100A900000F0FAB8002801DBC0F10040002901DBBA
:100AA000C1F1004181427047002801DBC0F10040E4
:100AB000002901DBC1F100418842704730B50B4687
:100AC000014600202022012409E021FA02F59D427E
:100AD00005D303FA02F5491B04FA02F52844151E52
:100AE000A2F10102F1DC30BD2DE9F05F05460020E6
:100AF00092469B4688460646814640241BE028468F
:100B000041464746224600F02FF853465A46C01A3F
:100B1000914110D311461846224600F016F82D1ABE
:100B200067EB01084F4622460120002100F00DF836
:100B300017EB00094E41201EA4F10104DFDC4846FA
:100B400031462A464346BDE8F09F202A04DB203A7E
:100B500000FA02F1002070479140C2F1200320FA10
:100B600003F3194390407047202A04DB203A21FA0E
:100B700002F00021704721FA02F3D040C2F12002B6
:100B80009140084319467047202A06DBCB17203ACC
:100B900041FA02F043EAE07306E041FA02F3D04082
:100BA000C2F120029140084319467047426842B1A1
:100BB000016811F8013B23B1521EC0E9001218462A
:100BC00070470121C160881E704742685AB1C368EE
:100BD000016843B983688B4205D0491E521CC0E9A5
:100BE0000012002070474FF0FF3070470FB4002311
:100BF00000B589B00CA900910B996FF00042CB6051
:100C00001E4B06931E4B07930423CDE901321D4A68
:100C1000089202466B460020FFF7C4FB09B05DF85E
:100C200014FB70B586B006464FF0FF300091CDE959
:100C30000101002015460C4604903246694604A87E
:100C4000FFF7D4FF02460498211825B108B10846E1
:100C500000E020462860049800280DD0002A02DD1C
:100C60000098884208D0081B0094CDE90104324660
:100C7000694604A8FFF7BAFF06B070BDAD0B0008C7
:100C8000CB0B0008FD0E00080029A8BF7047401CD0
:100C9000490008BF20F00100704710B4B0FA80FC92
:100CA00000FA0CF050EA010404BF10BC704749B1CF
:100CB000CCF1200421FA04F411FA0CF118BF01213F
:100CC00021430843A3EB0C01CB1D4FEA00614FEA1F
:100CD000102042BF002010BC704700EBC3501044EE
:100CE0000029A4BF10BC7047401C490008BF20F079
:100CF000010010BC704710B5141E73F1000408DA2F
:100D0000401C41F1000192185B411A4301D120F0CF
:100D1000010010BD2DE9F04D92469B4611B1B1FA8C
:100D200081F202E0B0FA80F220329046FFF70DFF28
:100D300004460F4640EA0A0041EA0B0153465A4670
:100D4000084313D0114653EA010019D0C8F14002FC
:100D50005046FFF709FF05460E46504659464246A3
:100D6000FFF7F3FE084305D0012004E02046394692
:100D7000BDE8F08D0020054346EAE0762C4337437A
:100D80000A986305E40AA0EB08000022FD0A44EA81
:100D900047540A3002D500200146E9E70105101941
:100DA0006941DDE9084500196941BDE8F04DA2E758
:100DB0002DE9F04D81EA030404F0004B21F00045D9
:100DC00014464FF0000A23F0004150EA050220D0FB
:100DD00054EA01021DD0C5F30A570246C5F31303B6
:100DE000C1F31300C1F30A5640F4801543F4801395
:100DF000A7EB0608101BD64608F2FD3873EB05007A
:100E000002D308F1010801E092185B41B8F1000F2C
:100E100003DA00200146BDE8F08D00204FF4801178
:100E2000064684460EE0171B73EB050705D3121B1D
:100E300063EB050306434CEA010C49084FEA300016
:100E400092185B4150EA0107EDD152EA030012D03B
:100E500082EA040083EA0501084305D0101BAB4178
:100E600006D20122002306E000224FF0004302E0F8
:100E70006FF0010253101AEB06004CEB085110EB17
:100E80000A0041EB0B01BDE8F04DFFF734BF0EB592
:100E900040F2334202920022CDE900221346FFF7CE
:100EA00039FF03B000BDC1F30A52C1F3130140F290
:100EB000FF3341F480119A4202DA00200146704764
:100EC00040F233439A42A2F2334202DC5242FFF72D
:100ED0004BBEFFF73ABE0000064C074D06E0E06847
:100EE00040F0010394E8070098471034AC42F6D371
:100EF000FFF722F984640008A4640008C0B24FF42C
:100F0000F05100F001B800007F2801D9002208E06C
:100F1000064A02EB5002C007127800D1120902F013
:100F20000F02012090400840704700002464000830
:100F300070B58D1810F8014B14F0030201D110F8B0
:100F4000012B231106D110F8013B03E010F8016BCF
:100F500001F8016B521EF9D1ABB110F8012B04F06E
:100F60000C048A1A0C2C03D0A2EB84129B1C08E000
:100F700010F8014BA2EB0422F8E712F8014B01F83C
:100F8000014B5B1EF9D5A942D4D3002070BD0000EF
:100F900010B50F48C078002819DD0D48C0780F281B
:100FA00015DC0B48C078401E0949C8700846C07857
:100FB000012804D10021022000F0DAFE07E00448F5
:100FC000C078012803DD0121042000F0D1FE10BD0E
:100FD000A40B002000BFFEE710B5C8210348FFF7AF
:100FE000E2F800200249088010BD0000751C0020B6
:100FF0005C0B002010B5012000F006FF04463CB158
:101000005148007820B95148047001204E490870B9
:1010100064B14D480078012808DB4B4800781E2851
:1010200004DC49480078401C47490870002C6BD10B
:1010300045480078002867DD434800781E2863DAB9
:1010400042480078012806D0022816D0032837D05D
:10105000042853D143E03EA003F00CFD3F48007D3F
:1010600018B100203D49087502E001203B49087590
:101070000021032000F07CFE41E039A003F0FAFCDF
:101080003A48006880B93548808B32280CDD012051
:10109000364980310860002100F06AFE1020344992
:1010A000C870012008710AE00020304980310860D2
:1010B0000021022000F05CFE00202D4908711EE096
:1010C0002CA003F0D7FC2E4880881E2804DD2C4875
:1010D0008088401E2A49888003F0C0FC0FE029A0C8
:1010E00003F0C8FC26488088642804DA24488088F5
:1010F000401C2349888003F0B1FC00E000BF00BF22
:101100000020114908701EE0ECB90F4800781E2835
:1011100019DB0E480078012804D0022806D00328E5
:101120000CD107E01AA003F0A5FC08E01BA003F017
:10113000A1FC04E01CA003F09DFC00E000BF00BF88
:1011400000200149087010BDAA0B0020AB0B002045
:101150004B6579315F53686F72740A006C2F002001
:101160004B6579325F53686F72740A0018812142AF
:10117000A40B00204B6579335F53686F72740A00CB
:101180009C0B00204B6579345F53686F72740A00C2
:101190004B6579315F4C6F6E670A00004B657932A1
:1011A0005F4C6F6E670A00004B6579335F4C6F6E62
:1011B000670A000008B50121082002F07FFC20200A
:1011C000ADF8000010208DF8030003208DF8020018
:1011D0006946024800F06FFB08BD0000000C0140AA
:1011E0002DE9FC5F064600F057F8002404E0305D6E
:1011F00000F0FAF8601CC4B2082CF8DB442000F0C0
:10120000F3F800F049F8002404E0305D00F0ECF859
:10121000601CC4B2082CF8DBBE2000F0E5F800F03A
:10122000ADF8834600F0AAF881464FEA092005B2DE
:1012300045EA0B05002D0EDAE843401CFFF782FB60
:10124000074600220C4BFFF706FBCDE90001FFF734
:1012500005FC82460CE02846FFF774FB0746002297
:10126000054BFFF7F8FACDE90001FFF7F7FB8246DF
:101270005046BDE8FC9F00000000B03F10B5FFF7EE
:1012800099FF2021034800F0F4FB00F097F800F0EC
:101290002DF810BD000C014010B500F08FF800F0E3
:1012A00025F8552000F0A0F810BD000008B520205A
:1012B000ADF8000048208DF803006946014800F0B1
:1012C000FAFA08BD000C014008B52020ADF8000076
:1012D00010208DF8030003208DF8020069460248B3
:1012E00000F0E9FA08BD0000000C014010B5002430
:1012F000FFF7DCFF04E0601CC4B2012004F002FA36
:1013000020210F4800F0AAFB08B1642CF3DB642C09
:1013100001DB012010BD002404E0601CC4B20120E8
:1013200004F0F0F92021064800F098FB08B9F02CF1
:10133000F3DBF02C01DB0120ECE70020EAE7000002
:10134000000C014010B5FFF7BFFF20210A4800F054
:101350008EFB0A2004F0D6F9FFF7A8FF20210648EB
:1013600000F07CFB012801D1012400E000242D20A5
:1013700004F0C8F9204610BD000C014070B50026ED
:10138000002408E0FFF7DEFF054605FA04F03043CD
:10139000C6B2601CC4B2082CF4DB304670BD70B518
:1013A0000546332000F020F8002404E0FFF7E6FFB4
:1013B0002855601CC4B2082CF8DB70BD10B5FFF7CF
:1013C00083FF2021074800F052FB40F2EE2004F09A
:1013D00099F92021034800F04CFB0F2004F092F90A
:1013E00010BD0000000C014070B50446FFF76CFF13
:1013F000002522E004F00106641076B12021104897
:1014000000F035FB082004F07DF920210C4800F0A5
:1014100030FB3A2004F076F90DE02021084800F076
:1014200026FB462004F06EF92021054800F021FB40
:10143000022004F067F9681CC5B2082DDADB70BD24
:10144000000C01407047000010B54FF48071034854
:10145000FEF7A9FE00200249088010BD6926002081
:101460007E0B002070B50546002400BF00F048F94F
:1014700080B90DA10E48FEF7ADFE044654B13A21E5
:101480002046FEF7B9FE044614B1641C204670BD28
:101490000020FCE7052004F00FF9281EA5F101014A
:1014A0008DB2E3D100BFF2E74950442C00000000A8
:1014B0006926002000B5A1B0FA2004F0FDF8FFF77E
:1014C000C3FF32A003F0D6FA03E04FF4967004F0A5
:1014D000F3F8C8222FA130A000F0C8F80028F4D1FA
:1014E0002FA003F0C7FA03E04FF4967004F0E4F87D
:1014F000C82228A12DA000F0B9F80028F4D12FA00F
:1015000003F0B8FA03E04FF4967004F0D5F8C8225F
:1015100020A12DA000F0AAF80028F4D12EA003F0FD
:10152000A9FA802101A8FEF73EFE2DA32FA232A129
:1015300001A803F0AFFA03E04FF4967004F0BCF892
:10154000C82233A101A800F091F80028F4D132A0FC
:1015500003F090FA802101A8FEF725FE41F2727394
:1015600030A234A101A803F095FA03E04FF4FA7019
:1015700004F0A2F8C82236A101A800F077F80028EC
:10158000F4D135A003F076FA21B000BD41540D0A24
:10159000000000004F4B000041540D0A0D000000F8
:1015A00043574D4F44450D0A0000000041542B4362
:1015B000574D4F44453D310D0A00000041542B4327
:1015C00057444843500D0A0041542B435744484365
:1015D000503D312C310D0A0043574A41500D0A004D
:1015E000703637356570683900000000434D43435D
:1015F0002D4B50554400000041542B43574A415055
:101600003D222573222C222573220D0A00000000A2
:10161000474F5420495000004349505354415254BD
:101620000D0A00003138332E3233302E34302E3351
:101630003900000041542B43495053544152543D0A
:1016400022544350222C222573222C25640D0A009B
:10165000434F4E4E454354004553503832363620A2
:10166000496E6974204F4B0D0A0000002DE9F041CE
:1016700005460E4614462846FEF7C8FD87B2394691
:10168000284603F0D3F90FE000F03AF848B93146A4
:101690000948FEF79FFD20B1FFF7D6FE0020BDE808
:1016A000F0810A2004F008F8201EA4F101018CB298
:1016B000EAD10120F3E700006926002030B589B0A7
:1016C00005460C46FFF7C0FE224608A101A803F01C
:1016D000E1F9C82209A101A8FFF7C8FF18B92146FE
:1016E000284603F0A3F909B030BD000041542B4354
:1016F000495053454E443D25640D0A003E0000000C
:101700000A48008808B9012070470848008808493D
:101710000988884203D1002004490880F4E703487F
:101720000088034908800120EEE700007E0B0020BE
:10173000800B0020044900E0521C11F8013B002BF3
:10174000FAD15008704700008C0A002010B50446FA
:10175000062C22D2DFE804F003080D12171C012129
:10176000084602F08BF918E00121022002F086F908
:1017700013E00121042002F081F90EE0012108208C
:1017800002F07CF909E00121102002F077F904E071
:101790000121202002F072F900BF00BF10BD70B51A
:1017A00004460D4616462046FFF7D0FF324629462E
:1017B000204600F05AF8204600F001F870BD3EB512
:1017C0000446204602F024FD0546062C33D2DFE80D
:1017D00004F0030B131B232A4FF47A70ADF80400B6
:1017E0004820ADF8000026E040F2E730ADF80400F4
:1017F0004720ADF800001EE04FF47A70ADF8040009
:101800004820ADF8000016E040F2E630ADF80400E4
:101810004620ADF800000EE05920ADF804004F203E
:10182000ADF8000007E040F2E730ADF804004720D3
:10183000ADF8000000BF00BF0020ADF80600ADF815
:1018400002008DF808006946284602F08FFC01214D
:10185000284602F05FFC01221146284602F07DFC7A
:101860000021284602F05CFC3EBDF8B506460C4659
:1018700015464FF4A06001F0C3FA26B1012E06D040
:10188000022E0CD107E01C208DF8000007E01D207F
:101890008DF8000003E01E208DF8000000BF00BF9F
:1018A0008DF801408DF8025001208DF80300684644
:1018B00001F06EFAF8BD2DE9F04102460025002640
:1018C000002000230024002791F803C00CF00F052E
:1018D00091F803C00CF0100CBCF1000F03D091F88C
:1018E00002C04CEA050591F800C0BCF1000F31D0F0
:1018F000146800202BE04FF0010C0CFA00F3B1F853
:1019000000C00CEA03069E4220D183004FF00F0C6A
:101910000CFA03F7BC4305FA03FC4CEA040491F803
:1019200003C0BCF1280F06D14FF0010C0CFA00FCEB
:10193000C2F814C00AE091F803C0BCF1480F05D109
:101940004FF0010C0CFA00FCC2F810C0401C082833
:10195000D1D31460B1F800C0BCF1FF0F34DD54687E
:1019600000202EE000F1080C4FF0010808FA0CF3FB
:10197000B1F800C00CEA03069E4221D183004FF06B
:101980000F0C0CFA03F7BC4305FA03FC4CEA040401
:1019900091F803C0BCF1280F05D100F1080C08FA3A
:1019A0000CF8C2F8148091F803C0BCF1480F07D1BD
:1019B00000F1080C4FF0010808FA0CF8C2F810808A
:1019C000401C0828CED35460BDE8F081F0B50A462B
:1019D000002300240021002500F00046B6F1004F4E
:1019E00002D11D4EF16901E01B4E7168C0F3034541
:1019F00083B200F44016B6F5401F08D121F07061A3
:101A0000154E766826F07066134F7E6012E000F483
:101A10008016B6F5801F06D1032606FA05F4A14309
:101A200041F0706106E0460D360103FA06F6B14357
:101A300041F0706122B1460D360103FA06F63143DA
:101A400000F00046B6F1004F02D1034EF16101E013
:101A5000014E7160F0BD0000000001400246002010
:101A600093680B400BB1012000E0002070474161FA
:101A7000704701617047000010B500F05DF8014942
:101A8000086010BD500B00202DE9F04100F054F823
:101A9000214908600846006820490968884235D90C
:101AA0001D480068FEF749FF1D4908601B48006893
:101AB000FEF743FF04461A4801682046FEF7E3FD9F
:101AC00017490860174916480068FEF7DFFD1449FA
:101AD000086008460068FEF77EFF04460022124BAD
:101AE000FEF7A4FF0ED20E480068FEF774FF06460C
:101AF0000E4A0F4BFEF7AFFE0446FEF753FF0D49AB
:101B0000888306E000200B49888302E00020094911
:101B10008883BDE8F08100004C0B0020500B0020B2
:101B2000540B00200000AF440000E03F295C8FC24E
:101B3000F5081B406C2F002070B501201949086082
:101B400003F0E0FD00201849C1F88401002400BF23
:101B5000144800680028FBD1002513E0012011493A
:101B600084310860640003F0CDFD00200E49C1F807
:101B700084010C48006800B1641C012003F0C2FD20
:101B8000681CC5B2182DE9DB0120064984310860C4
:101B900084F4000403F0B6FD00200349C1F8840179
:101BA000204670BD000121420000214200BFFEE737
:101BB00010B54FF4A06001F023F9FFF7BBFD2049F9
:101BC000086003F057FD012200210220FFF7E7FD26
:101BD0004FF4E13002F02CFE4FF4165002F078FE84
:101BE0004FF4E13002F0CCFE02F03CF900F0A6F92F
:101BF00000F070F900F0BEF9FFF740FB1148FFF765
:101C0000CEFB00F027F801F0E3FF00F047F80020DA
:101C10000D49086001F0C6F9002001F07EF90020AE
:101C200001F089F902E0052003F046FD0749084864
:101C300002F008F80128F6D101F06AF910BD0000A1
:101C4000380B0020440B002098812142A40B002077
:101C50009C0B002008B50121042001F02FFF022079
:101C6000ADF8000010208DF8030003208DF802006D
:101C700069460948FFF71FFE0120ADF80000482023
:101C80008DF8030069460448FFF715FE022102485B
:101C9000FFF7EFFE08BD00000008014008B5012174
:101CA000042001F00BFF4020ADF8000028208DF843
:101CB000030069460C48FFF7FEFD0021022000F0FA
:101CC00057F81F2000F08EF8642003F0F5FC1F2069
:101CD00000F088F8642003F0EFFC1F2000F082F889
:101CE000642003F0E9FC08BD000801402DE9F04143
:101CF00005460E462846FEF789FA87B2294619A0FE
:101D000002F0B8FE012E16D140211748FFF7A6FEBB
:101D100088B900240CE000BF4021144802F09CFB6D
:101D20000028F9D0295D114802F063FC601C84B2E0
:101D3000BC42F0DD11E086B900240CE000BF402178
:101D40000A4802F089FB0028F9D0295D074802F013
:101D500050FC601C84B2BC42F0DD0A2003F0ACFCF5
:101D6000BDE8F08125730A000008014000440040EE
:101D700030B585B004460D460A2C09DA224610A17A
:101D8000684602F087FE29466846FFF7AFFF14E079
:101D9000642C09DA22460DA1684602F07BFE294632
:101DA0006846FFF7A3FF08E022460BA1684602F051
:101DB00071FE29466846FFF799FF05B030BD000067
:101DC00041373A3030303025640D0A0041373A301F
:101DD000303025640D0A000041373A303025640D5B
:101DE0000A00000010B586B00446224604A101A8EE
:101DF00002F050FE002101A8FFF778FF06B010BDE9
:101E000041463A25640D0A0010B5044614B101207C
:101E10002E4908702D48007890B34FF480512C481B
:101E2000FFF71CFE88B14FF400512948FFF716FE5A
:101E300058B14FF480412648FFF710FE28B14FF407
:101E400000412348FFF70AFED0B900201F4908705F
:101E50004FF480511E48FFF701FE08B9012010BD64
:101E60004FF400511A48FFF7F9FD08B90220F6E7D0
:101E70004FF480411648FFF7F1FD10B90320EEE75B
:101E800007E04FF400411248FFF7E8FDE0B90420F5
:101E9000E5E74FF480510E48FFF7E0FD012813D12C
:101EA00041030B48FFF7DAFD01280DD181030848F3
:101EB000FFF7D4FD012807D1C1030548FFF7CEFD88
:101EC000012801D1014908700020C8E7180000204E
:101ED000000C014008B50121082001F0EFFD4FF48E
:101EE0008050ADF8000048208DF803006946124884
:101EF000FFF7E1FC4FF40050ADF8000048208DF8EA
:101F0000030069460C48FFF7D6FC4FF48040ADF85B
:101F1000000048208DF8030069460748FFF7CBFC16
:101F20004FF40040ADF8000048208DF803006946EA
:101F30000148FFF7C0FC08BD000C014008B50121B5
:101F4000142001F0BBFD4FF40050ADF8000010204C
:101F50008DF8030003208DF8020069460348FFF75F
:101F6000AAFC00200249086008BD000000100140E2
:101F7000B401224208B50121082001F09FFD802014
:101F8000ADF8000048208DF8030069460C48FFF7C3
:101F900092FC4FF48070ADF8000048208DF80300EB
:101FA00069460748FFF787FC4FF40070ADF8000062
:101FB00048208DF8030069460148FFF77CFC08BD06
:101FC000000C014010B50446207B012802D1206896
:101FD00002F074FD002020606060A060207310BDDE
:101FE0000246002301230DE002F07F000870D209B1
:101FF0002AB1087840F080000870491C01E01846BA
:1020000070475B1C042BEFDD4FF0FF30F8E700005A
:1020100070B5C0B004464FF480716846FEF7C3F84F
:102020003AA0008820804FF480716846FEF7BBF824
:102030003748828B37A1684602F02CFD694620465E
:10204000FEF7BCF84FF480716846FEF7ACF83548EF
:10205000026835A1684602F01DFD69462046FEF77C
:10206000ADF84FF480716846FEF79DF82848027D70
:1020700030A1684602F00EFD69462046FEF79EF844
:102080004FF480716846FEF78EF821498868FEF7A4
:10209000A2FC05462A460B462AA1684602F0FAFC35
:1020A00069462046FEF78AF84FF480716846FEF7CD
:1020B0007AF82848C27828A1684602F0EBFC694605
:1020C0002046FEF77BF84FF480716846FEF76BF808
:1020D0002548828825A1684602F0DCFC6946204636
:1020E000FEF76CF84FF480716846FEF75CF823A1A8
:1020F000684602F0CFFC69462046FEF75FF82046AE
:10210000FEF784F8C0B240B070BD00007B00000054
:102110006C2F0020227769676874223A2225642296
:102120002C0000001881214222686F74223A222577
:1021300064222C0022666C616765223A22256422A3
:102140002C0000002274656D70223A22252E326622
:10215000222C0000A40B00202277616E696E67229A
:102160003A222564222C00009C0B00202274656D0D
:10217000705F76223A222564220000007D00000074
:1021800070B504460E460025206898B901202073DA
:10219000304602F0C1FC20602068E0B100206060A1
:1021A000A66003E00020216848556D1CA068A84285
:1021B000F8D810E00220207303E000202168485581
:1021C0006D1CA068A842F8D800206060A068B042EA
:1021D00001D20020206070BD2DE9FF5F07460D464B
:1021E00090463846FEF712F886B22846FEF70EF8FB
:1021F0001FFA80FA4FF00009B01D02F08DFC044672
:102200001CB9012004B0BDE8F09FB11D2046FDF7C8
:10221000CAFF12A0016821608088A080324639463A
:102220002046FEF708F82846FDF7F0FF8346012018
:10223000002100915B462A46CDE902080191214622
:102240000A2000F05FF910B94FF0000901E04FF0EB
:102250000109204602F032FC4846D3E7246372733A
:10226000702F00002DE9FF4F83B082468B469146C8
:10227000159C0025002002900F2701904846FDF78D
:10228000C5FF0FFA80F8B9F1000F03D1012007B0A4
:10229000BDE8F08F08F10200384487B2109808B109
:1022A00045F00205129878B145F004051298FDF743
:1022B000ADFFC0B202901398FDF7A8FF0146029847
:1022C000001D0844384487B2119820B1012804D079
:1022D000022808D104E000BF07E045F00C0504E047
:1022E00045F0140501E00220D1E700BF149808B1C1
:1022F00045F02405BAF1000F02D0BBF1000F01D167
:102300000320C4E745F0C0055046FDF77FFF0646B1
:102310005846FDF77BFF3044001D384487B23946EC
:102320002046FFF72DFF206808B90420AFE73946A3
:102330002068FDF738FF10216268501C606020683B
:102340008154D4E90023D118781FFFF749FE00B269
:1023500001900198002804DA2046FFF733FE05209B
:1023600095E7616801980844606000216268501C2C
:1023700060602068815404216268501C606020689D
:1023800081544D216268501C606020688154512145
:102390006268501C60602068815454216268501C3F
:1023A0006060206881546268501C606020688154BD
:1023B00004216268501C6060206881546168481C78
:1023C0006060206845540698010A6268501C60608D
:1023D000206881540698C1B26268501C6060206811
:1023E0008154C8F307216268501C606020688154E2
:1023F0006268501C6060206800F80280D4E9001216
:10240000881842464946FDF716FF60684044606000
:1024100005F00400B8B30026139808B938A013904B
:102420001298FDF7F3FE86B2310A6268501C6060B4
:10243000206881546268501C606020688654D4E92A
:102440000012881832461299FDF7F5FE6068304494
:1024500060601398FDF7DAFE86B2310A6268501C9C
:102460006060206881546268501C606020688654F7
:10247000D4E90012881832461399FDF7DCFE606833
:102480003044606000BF05F08000C8B15046FDF7E1
:10249000BDFE86B2310A6268501C606020688154BB
:1024A0006268501C606020688654D4E90012881865
:1024B00032465146FDF7BFFE60683044606000BFA1
:1024C00005F04000C8B15846FDF7A0FE86B2310ABB
:1024D0006268501C6060206881546268501C6060B3
:1024E00020688654D4E90012881832465946FDF710
:1024F000A2FE60683044606000BF0020C7E60000B4
:10250000000000002DE9FF4F83B0834690469946B6
:10251000139C002600250020029001900027BBF1AB
:10252000000F03D1012007B0BDE8F08F00250AE0BD
:102530000498405D232803D00498405D2B2801D1E6
:102540000220F0E76D1C0498405D0028F0D147F0B0
:102550003007119808B147F0010705EB0900861C08
:10256000109820B1012804D002280AD105E000BF4C
:1025700009E047F00207B61C05E047F00407B61C67
:1025800001E00320CFE700BF98F80000022822D125
:102590004FF0000A00BF50460AF1010A18F8000087
:1025A0007D28F8D1AAF1030A0AF1070002900298E7
:1025B000A9EB000AF01CA0EB0A012046FFF7E0FDA2
:1025C000206808B90420AEE7F21CA2EB0A012068DB
:1025D000FDF7E9FD0BE0F11C2046FFF7D1FD206877
:1025E00008B904209FE7F11C2068FDF7DCFD616855
:1025F000481C606020684754D4E9000281183046C6
:10260000FFF7EEFC01900198002804DA2046FFF75E
:10261000D9FC052087E76168019808446060C5F32C
:1026200007216268501C6060206881546268501CF9
:10263000606020688554D4E9001288182A460499FD
:10264000FDF7F9FD606828446060109860B14FEABA
:102650001B216268501C6060206881546268501CB5
:102660006060206800F802B0B8F1000F19D098F847
:10267000000002280BD1D4E9001288184146029AC2
:10268000FDF778FD616802980844606009E0D4E9CC
:10269000001288184A464146FDF76CFD60684844C0
:1026A000606000203FE770B505460C4604212046D7
:1026B000FFF766FD206808B9012070BD40216268FF
:1026C000501C60602068815402216268501C606068
:1026D0002068815429126268501C6060206881540F
:1026E0006268501C6060206885540020E5E770B582
:1026F00005460C4604212046FFF742FD206808B934
:10270000012070BD70216268501C60602068815497
:1027100002216268501C606020688154291262683E
:10272000501C6060206881546268501C60602068A2
:1027300085540020E5E770B505460C460421204687
:10274000FFF71EFD206808B9012070BD50216268A6
:10275000501C60602068815402216268501C6060D7
:102760002068815429126268501C6060206881547E
:102770006268501C6060206885540020E5E770B5F1
:1027800005460C4604212046FFF7FAFC206808B9EC
:10279000012070BD62216268501C60602068815415
:1027A00002216268501C60602068815429126268AE
:1027B000501C6060206881546268501C6060206812
:1027C00085540020E5E72DE9FF5F804617469946CE
:1027D0000E9C0026B246B3460025B8F1000F03D187
:1027E000012004B0BDE8F09F0BE057F8250008B9C0
:1027F0000220F6E757F82500FDF708FD0644681C9F
:10280000C5B24D45F1DB09EB4900801C00EB060A1F
:102810000AF105012046FFF7B3FC206808B9032040
:10282000DFE782216268501C606020688154D4E92F
:10283000000281185046FFF7D3FB0FFA80FBBBF173
:10284000000F04DA2046FFF7BDFB0420C9E76068EB
:10285000584460604FEA18216268501C606020682C
:1028600081546268501C6060206800F80280002576
:1028700024E057F82500FDF7C9FC0646C6F30721FA
:102880006268501C6060206881546268501C6060FF
:1028900020688654D4E90023D01857F82510324612
:1028A000FDF7C9FC6068304460600198C1B262689D
:1028B000501C606020688154681CC5B24D45D8DB4F
:1028C00000208EE7F0B504460D4626460123002081
:1028D0001060002114E0775C07F07F07106807FBA9
:1028E00003001060705C00F0800008B9481CF0BD67
:1028F000DB01B3F5001F02D36FF00100F7E7491CBD
:10290000A942E8DB4FF0FF30F1E72DE9F8438046BC
:102910000C4615461E462F2108F10600FDF76CFCFB
:1029200007460020009017B90120BDE8F8837F1CFE
:102930006A46042108F10100FFF7C4FF252002F0D8
:10294000EBF82060206808B90220EEE72521206816
:10295000FDF729FC242239462068FDF70BFC2437BB
:1029600000982C3830803188481C02F0D5F8286057
:10297000286820B9206802F0A1F80320D5E7328842
:10298000511C2868FDF70FFC328839462868FDF78E
:10299000F1FB0020C9E701464878022801D0012058
:1029A0007047887810B18878012801D1C878F7E796
:1029B000FF20F5E72DE9FC5F81460D4614461E46D3
:1029C000DDE90C8B99F8000000F00F0A002001905F
:1029D0000AF008000090CAF341008BF8000001AA39
:1029E000042109F10100FFF76DFF4844471C0198DD
:1029F000022802D30AF0010010B1FF20BDE8FC9FBD
:102A00007878397840EA012020802088801C01995C
:102A1000884201D9FF20F1E754A1B81CFDF7DAFB89
:102A200008B10F20EAE79BF8000020B101283DD053
:102A3000022877D13BE0009808B1FF20DEE721882B
:102A4000481C02F069F82860286808B9FF20D5E71B
:102A50002288511C2868FDF7A6FB2288B91C28682B
:102A6000FDF788FB0198801E2188401AA8F8000015
:102A7000B8F80010481C02F04FF83060306820B9F8
:102A8000286802F01BF8FF20B8E7B8F80020511CB6
:102A90003068FDF788FBB8F80020B4F800C0BB1C14
:102AA0000CEB03013068FDF765FB4FE000BF2088A9
:102AB000801C0199884201D9FF209FE72088C01C13
:102AC000395C2088801C385C41EA00210E98018026
:102AD0000E9808B9FF2091E72188481C02F01CF8E5
:102AE0002860286808B9FF2088E72288511C2868D8
:102AF000FDF759FB2288B91C2868FDF73BFB0198BC
:102B0000001F2188401AA8F80000B8F80010481CDF
:102B100002F002F83060306828B9286801F0CEFF72
:102B2000FF206BE710E0B8F80020511C3068FDF77B
:102B30003AFBB8F80020B4F800C03B1D0CEB0301D1
:102B40003068FDF717FB01E0FF2057E700BF2B219E
:102B50002846FDF751FB20B923212846FDF74CFB01
:102B600008B1FF204AE7002048E7000024637265AF
:102B70007100000001464878022801D0012070470A
:102B8000887820B9C8780A2801D10020F7E7012009
:102B9000F5E701464878022801D00120704788787F
:102BA00020B9C8780A2801D10020F7E70120F5E70D
:102BB00001464878022801D001207047887820B962
:102BC000C8780A2801D10020F7E70120F5E702467E
:102BD0005078022801D0012070479078B0EB112F77
:102BE00005D1D078CBB2984201D10020F4E7012082
:102BF000F2E70000F8B50446FF2720780511012D03
:102C000001DB0E2D01DD3846F8BD032D24D1002057
:102C100000906A460421601CFFF754FE2044461CC5
:102C20000098022803D3207800F0010008B1FF20AB
:102C3000EAE77078317840EA0120801C00998842E8
:102C400001D9FF20E0E706A1B01CFDF7C3FA08B1E7
:102C50000F2700E0032700E02F463846D4E70000A6
:102C600024637265710000000146FF208A78A2B9D2
:102C7000CA78142A11D10A7932B1012A05D0022A60
:102C800004D0802A06D103E000BF00BF002003E08B
:102C9000012001E0022000BF00BF70470146012073
:102CA0008A781AB9CA781E2A00D10020704700BF5E
:102CB000FEE7000010B5A0B0044680216846FDF78D
:102CC00072FA11A00088208080216846FDF76BFA17
:102CD00000220EA1684601F0DDFE69462046FDF7A0
:102CE0006DFA80216846FDF75EFA0DA1684601F095
:102CF000D1FE69462046FDF761FA2046FDF786FAC7
:102D0000C0B220B010BD00007B00000022636865E7
:102D1000636B5F646576696365223A2225642200ED
:102D20007D00000010B5A0B0044680216846FDF784
:102D30003AFA11A00088208080216846FDF733FA16
:102D400001220EA1684601F0A5FE69462046FDF766
:102D500035FA80216846FDF726FA0BA1684601F096
:102D600099FE69462046FDF729FA2046FDF74EFAFE
:102D7000C0B220B010BD00007B0000002274696D5D
:102D800065223A22256422007D0000007047000081
:102D900070B5002100230F22C47804B3154C2468B9
:102DA00004F4E064C4F5E064210AC1F10403CA40FC
:102DB000447804FA03F184781440214309010E4C4D
:102DC0000678A155047804F01F050124AC4005786D
:102DD0006D11AD0005F1E025C5F8004109E004786A
:102DE00004F01F050124AC40044D0678761145F827
:102DF000264070BD0CED00E000E400E080E100E062
:102E000002490143024A1160704700000000FA05C0
:102E10000CED00E000B58DB000F07AF821A1684615
:102E200001F038FE6A460021084600F071F921A23F
:102E300023A1684601F02EFE6A460221002000F020
:102E400067F924A226A1684601F024FE6A460421FF
:102E5000002000F05DF927A1684601F01BFE6A46DC
:102E60000621002000F054F9FEF724FB03E04FF4A4
:102E7000967002F021FC00F037FA0028F7D103E049
:102E80004FF4967002F018FC01211F4800F07EFDFF
:102E90000028F5D13C201D49087000F039F80DB02C
:102EA00000BD00002DC7EBB4F2BFAA57494649C880
:102EB000C8B5E300434D43432D4B5055440000003B
:102EC0002DC3FBB3C63A25732020202020202020CC
:102ED000200000007036373565706839000000004A
:102EE0002DC3DCC2EB3A2573202020202020202097
:102EF000200000002DC6B5C2CA3A20322E34204729
:102F0000487A20202000000000000020980B0020BC
:102F100010B5002000F025F810BD10B504461CB90E
:102F20000021A62000F0A6F9012C03D10021A72042
:102F300000F0A0F910BD10B504463CB90021C8202E
:102F400000F098F90021A12000F094F9012C07D19C
:102F50000021C02000F08EF90021A02000F08AF9A5
:102F600010BD70B50646002419E004F1B001C8B2E6
:102F7000002100F07FF90021084600F07BF90021D4
:102F8000102000F077F9002505E00121304600F01F
:102F900071F9681CC5B2822DF7DB601CC4B2082C25
:102FA000E3DB70BD08B50121042000F087FDB020EF
:102FB000ADF8000010208DF8030003208DF802000A
:102FC00069465148FEF777FCB0214F48FEF751FDA6
:102FD0000121082000F072FD40F20310ADF800005E
:102FE00010208DF8030003208DF802006946474841
:102FF000FEF761FC40F203114448FEF73AFD01215F
:103000004248FEF736FD642002F056FB01213F489E
:10301000FEF72DFDC82002F04FFB01213B48FEF7D3
:1030200028FD0021AE2000F025F90021084600F01F
:1030300021F90021102000F01DF90021402000F0AE
:1030400019F90021812000F015F90021CF2000F0AE
:1030500011F90021A12000F00DF90021C82000F095
:1030600009F90021A62000F005F90021A82000F0B0
:1030700001F900213F2000F0FDF80021D32000F0ED
:10308000F9F80021084600F0F5F80021D52000F0FD
:10309000F1F80021802000F0EDF80021D92000F0A7
:1030A000E9F80021F12000F0E5F80021DA2000F035
:1030B000E1F80021122000F0DDF80021DB2000F013
:1030C000D9F80021402000F0D5F80021202000F0A0
:1030D000D1F80021022000F0CDF800218D2000F071
:1030E000C9F80021142000F0C5F80021A42000F048
:1030F000C1F80021A62000F0BDF80021AF2000F0AB
:10310000B9F8FFF705FF08BD00080140000C0140B9
:103110002DE9F047074688461646002584E03078BA
:10312000A02845DD00253CE0702F04DD002708F1D4
:10313000020000F0FF0830783E4911F8151088426F
:103140002ED17078012101EB45013A4A515C884249
:1031500026D14146384600F077F8002407E004EB1A
:103160004511354A505C012100F084F8641C102C94
:10317000F5D308F10100C1B2384600F065F800242B
:1031800008E004EB451110312B4A505C012100F09E
:1031900071F8641C102CF4D307F11000C7B204E0DE
:1031A0006D1C264800688542BED300BFB61C3BE0BC
:1031B0007A2F04DD002708F1020000F0FF083178C3
:1031C0001F48FDF719F88146B9F1000F2BD0414691
:1031D000384600F039F800240AE099F80010203948
:1031E00004EB0111174A505C012100F043F8641C04
:1031F000082CF2D308F10100C1B2384600F024F8DF
:1032000000240BE099F80010203904EB011108317B
:103210000C4A505C012100F02DF8641C082CF1D3FD
:1032200007F10800C7B2761C307800287FF477AF2A
:10323000BDE8F0878C0A00200C060020380B002027
:10324000D50A00201C00002070B504460D4605F18B
:10325000B001C8B2002100F00DF8102141EA1410AD
:10326000002100F007F804F00F00002100F002F840
:1032700070BD000070B504460E4626B10221184804
:10328000FEF7F7FB03E002211548FEF7F0FB1021E3
:103290001448FEF7ECFB002517E020211148FEF74B
:1032A000E6FB04F0800020B180210E48FEF7E1FB30
:1032B00003E080210B48FEF7DAFB20210948FEF7E6
:1032C000D8FB6006040E681CC5B2082DE5DB102192
:1032D0000448FEF7CEFB02210148FEF7CAFB70BD91
:1032E000000C01400008014030B58BB00020079071
:1032F000089009900A90012535A338A238A13AA078
:1033000001F0B8FB07A8002102910391CDE9041058
:1033100000912B022EA2019130A131A0FEF7A2FF55
:10332000002843D1089A91B20798FEF7C7F9FA200E
:10333000FEF798F80446002C2FD02046FFF75AFCE1
:1033400002282AD12046FFF726FB062820D2DFE8F4
:1033500000F0030B0F13171B2BA001F08BFB0025B4
:1033600000202E49C87017E02DA001F083FB13E068
:1033700032A001F07FFB0FE039A001F07BFB0BE0F6
:103380003FA001F077FB07E046A001F073FB03E0EC
:103390004FA001F06FFB00BF00BF2048C078401C69
:1033A0001E49C87007A8FEF70DFE07E01B48C0784D
:1033B000401C1A49C8704DA001F05CFB1748C0784A
:1033C000022801DD00F006FD28460BB030BD0000EC
:1033D00031323135343836383537000031000000AD
:1033E000363334353839000050524F49443A20259D
:1033F0007309415549463A202573094445564944C5
:103400003A25730D0A000000546970733A09C1AC83
:10341000BDD3B3C9B9A60D0A000000006C2F00206F
:103420005741524E3A09C1ACBDD3CAA7B0DCA3BACA
:10343000D0ADD2E9B4EDCEF30D0A00005741524EA3
:103440003A09C1ACBDD3CAA7B0DCA3BAB7C7B7A805
:10345000B5C4636C69656E7469640D0A0000000090
:103460005741524E3A09C1ACBDD3CAA7B0DCA3BA8A
:10347000B7FECEF1C6F7CAA7B0DC0D0A0000000007
:103480005741524E3A09C1ACBDD3CAA7B0DCA3BA6A
:10349000D3C3BBA7C3FBBBF2C3DCC2EBB4EDCEF31B
:1034A0000D0A00005741524E3A09C1ACBDD3CAA71C
:1034B000B0DCA3BAB7C7B7A8C1B4BDD328B1C8C8D8
:1034C000E7746F6B656EB7C7B7A8290D0A000000D7
:1034D0004552523A09C1ACBDD3CAA7B0DCA3BACE9B
:1034E000B4D6AAB4EDCEF30D0A0000005741524EF7
:1034F0003A094D5154545F5061636B6574436F6E6C
:103500006E656374204661696C65640D0A00000095
:1035100070B58CB006460020089009900A900B9078
:1035200007900690059004900024039000253046F3
:10353000FFF760FB0446E01E0D2870D2DFE800F0C4
:1035400028707B93ADCDB5CDC1CDCDCD070004ABFB
:1035500007AA06A93046FFF7D8F90546BDB9BDF858
:1035600010306BA0DDE9061201F084FA08AADDE94B
:103570000601FEF731FE50B96EA001F07BFA099A00
:1035800091B20898FEF79AF808A8FEF71BFDA7E08D
:103590006E4803A904AA07ABCDE90021029005AA51
:1035A00006A93046FFF706FA0546002D36D1BDF8CC
:1035B00010000090BDF8142065A0DDE9061301F0AD
:1035C00059FA9DF80C00012802D0022824D111E0FC
:1035D00008A95E480088FFF766F850B96BA001F0B3
:1035E00049FA099A91B20898FEF768F808A8FEF718
:1035F000E9FC12E008A955480088FFF79CF850B98B
:1036000068A001F037FA099A91B20898FEF756F8C7
:1036100008A8FEF7D7FC00E000BF00BF60E05CE058
:103620003046FFF7A7FA10B964A001F023FA3C2056
:103630006A49087054E03046FFF7BAFA90B968A0BA
:1036400001F018FA08A90A20FFF799F850B96AA002
:1036500001F010FA099A91B20898FEF72FF808A81D
:10366000FEF7B0FC3CE0394801883046FFF7AFFA7E
:1036700090B967A001F0FEF908A90A20FFF737F812
:1036800050B969A001F0F6F9099A91B20898FEF7CD
:1036900015F808A8FEF796FC22E03046FFF779FA05
:1036A00010B968A001F0E6F91AE03046FFF7DCFA3D
:1036B00018B96AA001F0DEF902E06FA001F0DAF9B2
:1036C0000EE03046FFF7EAFA18B972A001F0D2F91D
:1036D00002E077A001F0CEF902E04FF0FF3500BF25
:1036E00000BFFDF7B1FE681C08B90CB070BD0798AB
:1036F00010B1079802F0CAF80F2C01D0032C05D1A5
:10370000069801F0DBF9079801F0D8F900BFECE763
:10371000636D6469643A2025732C207265713A20C8
:1037200025732C207265715F6C656E3A2025640DDF
:103730000A000000546970733A0953656E642043AF
:103740006D64526573700D0A000000009A0B002032
:10375000746F7069633A2025732C20746F706963ED
:103760005F6C656E3A2025642C207061796C6F6106
:10377000643A2025732C207061796C6F61645F6CF2
:10378000656E3A2025640D0A0000000054697073CC
:103790003A0953656E64205075626C6973684163C1
:1037A0006B0D0A00546970733A0953656E642050BA
:1037B00075626C6973685265630D0A0054697073B1
:1037C0003A094D515454205075626C697368205306
:1037D000656E64204F4B0D0A00000000980B00201E
:1037E000546970733A09526576205075626C69733A
:1037F000685265630D0A0000546970733A09536595
:103800006E64205075626C69736852656C0D0A00B5
:10381000546970733A09526576205075626C697309
:103820006852656C0D0A0000546970733A0953655B
:103830006E64205075626C697368436F6D700D0A19
:1038400000000000546970733A0952657620507583
:10385000626C697368436F6D700D0A005469707310
:103860003A094D515454205375627363726962650D
:10387000204F4B0D0A000000546970733A094D51F6
:103880005454205375627363726962652045727285
:103890000D0A0000546970733A094D515454205573
:1038A0006E537562736372696265204F4B0D0A0037
:1038B000546970733A094D51545420556E537562D2
:1038C000736372696265204572720D0A0000000020
:1038D00030B5C9B0044600204590469047904890C6
:1038E00000254FF4807105A8FCF75DFC012C06D083
:1038F000022C09D0032C0CD0042C14D10EE005A806
:10390000FEF786FB05460FE005A8FFF70BFA054614
:103910000AE005A8FFF7CEF9054605E005A8FFF780
:10392000C9F9054600E000BF00BFCDB145A801219F
:103930000022CDE900122B4605AACDE9021009A10B
:103940000A20FEF7DFFD40B9469A91B24598FDF78F
:10395000B5FE45A8FEF736FB02E00AA001F08AF8A2
:1039600049B030BD2F62726F6164636173742F68F8
:1039700039736A4970384C4955372F7465737432FE
:10398000000000005741524E0D0A0000F0B585B00E
:1039900004460D46002600200190029003900490FA
:1039A00006E054F826101FA001F064F8701CC6B29F
:1039B000AE42F6DB01A82B462246022100901420DD
:1039C000FEF701FF00282BD1029A91B20198FDF772
:1039D00075FE4FF4FA70FDF745FD07463846FFF7D0
:1039E00009F909280AD115A001F044F801A8FEF749
:1039F000E9FA00201849C87005B0F0BD17A001F021
:103A000039F801A8FEF7DEFA1348C078401CC0B2AE
:103A10001149C870022801DD00F0DCF90120EBE754
:103A20000120E9E753756273637269626520546F20
:103A30007069633A2025730D0A00000054697073A1
:103A40003A094D515454205375627363726962652B
:103A5000204F4B0D0A0000006C2F0020546970733A
:103A60003A094D515454205375627363726962650B
:103A7000204572720D0A00007047000029B1064A05
:103A8000D2690243044BDA6104E0034AD2698243FB
:103A9000014BDA61704700000010024029B1064A6C
:103AA00012690243044B1A6104E0034A126982431B
:103AB000014B1A61704700000010024029B1064A0C
:103AC00092690243044B9A6104E0034A926982437B
:103AD000014B9A61704700000010024029B1064A6C
:103AE000D2680243044BDA6004E0034AD26882439E
:103AF000014BDA60704700000010024030B5002131
:103B00000022002400232D4D6D6805F00C0121B129
:103B1000042905D0082923D105E0294D056022E0BC
:103B2000274D05601FE0254D6D6805F47012234D8B
:103B30006D6805F48034022505EB92421CB9214DD5
:103B4000554305600BE01D4D6D6805F400351DB152
:103B50001C4D5543056002E0194D5543056002E0D8
:103B6000174D056000BF00BF144D6D6805F0F001F2
:103B70000909154D6B5C0568DD4045600F4D6D68AA
:103B800005F4E061090A104D6B5C4568DD40856015
:103B90000A4D6D6805F46051C90A0B4D6B5C4568B0
:103BA000DD40C560054D6D6805F44041890B074D4A
:103BB0006B5CC568B5FBF3F5056130BD00100240D4
:103BC00000127A0000093D006A0B00207A0B0020E9
:103BD00008B501210820FFF771FF4020ADF8000073
:103BE00010208DF8030003208DF80200694602487A
:103BF000FDF761FE08BD0000000C014000B5022287
:103C000002490348006800F043F900BDA00B002002
:103C10003C0B002010B504460848FDF7E1FA0849BE
:103C2000C860C8684FF07E51FCF73EFF03D20448DD
:103C3000C06803498860012010BD0000440B0020CB
:103C40006C2F002070B504460D46FFF7D7FF00200B
:103C5000044908714871C8701F20034988800120F9
:103C600070BD0000A40B00209C0B0020704710B515
:103C700000F002F810BD00000CB50020019000908B
:103C80003348006840F480303149086000BF304854
:103C9000006800F4003000900198401C01900098EA
:103CA00018B90198B0F5A06FF1D12948006800F467
:103CB000003010B10120009001E000200090009839
:103CC000012843D12348006840F0100021490860D2
:103CD0000846006820F0030008600846006840F0CD
:103CE000020008601A484068194948600846406860
:103CF00048600846406840F4806048600846406874
:103D000020F47C1048600846406840F4E8104860A1
:103D10000846006840F08070086000BF0C480068EA
:103D200000F000700028F9D00948406820F0030036
:103D3000074948600846406840F00200486000BFFC
:103D40000348406800F00C000828F9D10CBD0000C1
:103D5000001002400020024010B501234CF2503206
:103D60000B490C4802F056FA012364220A490B4819
:103D700002F050FA012340F6C4120949094802F042
:103D800049FA064802F076FA064802F073FA10BDC6
:103D9000CD600008CC130020D1600008DC130020A7
:103DA000F9610008EC130020042808D14FF0E0214D
:103DB000096941F004014FF0E022116107E04FF082
:103DC000E021096921F004014FF0E0221161704700
:103DD00070470000012080F3138800BF00BF074830
:103DE000006800F4E06006490843001D03490860CC
:103DF000BFF34F8F00BF00BFFEE700000CED00E0F7
:103E00000000FA0510B51348006840F001001149A0
:103E1000086008464068104908400E494860084656
:103E200000680E4908400B4908600846006820F405
:103E3000802008600846406820F4FE0048604FF487
:103E40001F008860FFF713FF4FF00060044908600F
:103E500010BD0000001002400000FFF8FFFFF6FE5A
:103E600008ED00E010B501210820FFF727FE012131
:103E70000846FFF723FE01210348FDF7A7FD0121B6
:103E80000248FDF7A3FD10BD000430000002300021
:103E900030B503460D480488B3F1006F01D201200C
:103EA00030BD4FF0006000EB8420984201D2022028
:103EB000F6E703E018780870491C5B1C101EA2F19D
:103EC0000105AAB2F6D100BFEAE70000E0F7FF1F44
:103ED0002DE9F84F8046894616465648B0F800A0AE
:103EE000A8F1006B4FEADB25CBF30A0000900098A5
:103EF000C0F50067B8F1006F02D20120BDE8F88F6D
:103F00004FF0006000EB8A20404501D20120F5E728
:103F100049484A4948604A484860BE4200DC374642
:103F20007DE0484802F06CFA08B10220E6E74FF065
:103F3000006101EBC5200A144349FFF7A9FF41487E
:103F400002F05EFA08B10220D8E73C48006940F070
:103F500002003A4908614FF0006000EBC52048615B
:103F60000846006940F040000861364802F048FA0F
:103F700008B10220C2E73148006941F6FD710840EE
:103F80002E490861002007E019F80020009901443B
:103F90002D4B5A54411C88B2B842F5DB00242AE06C
:103FA000284802F02DFA08B10220A7E7234800694B
:103FB00040F0010021490861234810F81400012154
:103FC00001EB4401204A515C40EA01204FF00061BE
:103FD00001EBC52121F814001A4802F011FA08B1CA
:103FE00002208BE71548006941F6FE71084013492D
:103FF0000861601C84B2B4F5806FD1DBB74200D198
:104000000EE0B9446D1C00200090F01B86B2B6F59E
:10401000006F02DD4FF4006000E03046074680E7A5
:1040200000BF0648006940F0800004490861002094
:1040300064E70000E0F7FF1F23016745002002400E
:10404000AB89EFCD88888800FC13002010B50121D2
:10405000294800F071F800284DD028480068401C1D
:104060002649086002F02EF9244800681921B0FBA7
:10407000F1F201FB120008B9FCF7BCFF2048006810
:104080006421B0FBF1F201FB120010B900201D49C0
:1040900008701B480068FA21B0FBF1F201FB120026
:1040A00010B9002018490870154800684FF4FA71DB
:1040B000B0FBF1F201FB120010B9002013490870A7
:1040C0000E4800684FF47A71B0FBF1F201FB120068
:1040D00068B9002009490860FCF75AFF0C480078CD
:1040E000002804DD0A480078401E094908700121B3
:1040F000014800F012F810BD00080040B40B002089
:10410000BC0B0020C30B0020C20B0020C10B002001
:10411000980B0020CA4302827047CA43028270474C
:1041200021B1028842F00102028004E002884FF6C9
:10413000FE731A400280704730B50246002000230B
:104140000024158A05EA0103958905EA010413B1E3
:104150000CB1012000E0002030BD1AB183890B436F
:10416000838102E083898B43838170470022028828
:104170001D4B98420ED01D4B98420BD0B0F1804F92
:1041800008D01B4B984205D01A4B984202D01A4BCC
:10419000984204D14FF68F731A404B881A43174B3D
:1041A000984207D0164B984204D04FF6FF431A406E
:1041B000CB881A4302808B8883850B8803850A4B42
:1041C00098420BD0094B984208D00E4B984205D02C
:1041D0000D4B984202D00D4B984201D10B7A0386C9
:1041E0000123838270470000002C0140003401400D
:1041F0000004004000080040000C00400010004097
:1042000000140040004001400044014000480140CB
:104210000146022901D1024800BF00BF70470000DB
:104220000008004010B540F225511D4800F021F96A
:1042300010B31B4800F0D8F9C4B21A48008800F443
:104240000040C8B91748008800F4804060B10A2CCB
:1042500003D000201349088020E01248008840F471
:1042600000401049088019E00D2C06D10D48008847
:1042700040F480400B49088010E00A480088C0F3F1
:104280000D0009490C5407480088401C0549088066
:1042900008460088C72801DD0020088010BD000006
:1042A00000380140680B00203D1D002010B540F291
:1042B0002551204800F0DDF8002839D01D4800F0D5
:1042C00093F9C4B2242C02D100201B4908801A485B
:1042D00001880088401C184A10801848445400780F
:1042E00024281ED1154800794D281AD11348407949
:1042F000432816D10A2C14D150211148FBF753FF43
:104300000D4802880D490E48FBF734FF01200C4987
:1043100081F85000002008490880C8210748FBF7B1
:1043200042FF05480088C82802DBC82002490880EF
:1043300010BD0000004400405C0B0020751C0020F4
:10434000FC1B002010B540F225510E4800F091F8FA
:10435000B0B10D480088FF2802D900200A49088022
:104360000848001D0088C1B2074802880088401C28
:10437000054B1880054881542021024800F008F8B8
:1043800010BD0000004800407E0B00206926002080
:1043900001F40072B2F5007F00D100BFCA43028071
:1043A000704721B1828942F40052828104E08289FF
:1043B0004DF6FF731A4082817047000010B5044625
:1043C0002048844209D101218803FFF787FB00219F
:1043D0004FF48040FFF782FB32E01B48844209D152
:1043E00001214804FFF75AFB00214FF40030FFF78A
:1043F00055FB25E01548844209D101218804FFF7C7
:104400004DFB00214FF48020FFF748FB18E01048D7
:10441000844209D10121C804FFF740FB00214FF479
:104420000020FFF73BFB0BE00A48844208D1012142
:104430000805FFF733FB00214FF48010FFF72EFB38
:1044400010BD00000038014000440040004800401A
:10445000004C00400050004002460020B1F5007FB3
:1044600000D100BF13880B400BB1012000E00020F9
:10447000704770B50246002400230025002040F656
:104480006A16B14200D100BFC1F3421501F01F030B
:10449000012606FA03F3012D02D19689334006E086
:1044A000022D02D1168A334001E0968A33400C1265
:1044B000012606FA04F41688344013B10CB1012029
:1044C00000E0002070BDF0B5034600240026002562
:1044D000002040F66A17B94200D100BF1846C1F368
:1044E000421401F01F06012707FA06F5012C01D13D
:1044F0000C3004E0022C01D1103000E014301AB16D
:1045000007682F43076002E00768AF430760F0BD0C
:104510002DE9F04786B005460E460024A24600BFAE
:10452000A1460027B08900B100BF2F462C8A4CF667
:10453000FF700440F08804432C82AC894EF6F310DF
:104540000440B08831890843718908430443AC8131
:10455000AC8A4FF6FF400440B0890443AC8201A806
:10456000FFF7CCFA1F48874202D1DDF810A001E026
:10457000DDF80CA0A88900F4004040B10AEBCA00A5
:1045800000EB0A1031684900B0FBF1F807E00AEBD4
:10459000CA0000EB0A1031688900B0FBF1F8642012
:1045A000B8FBF0F004012009642101FB1089A889FF
:1045B00000F4004040B1322000EBC900B0FBF1F044
:1045C00000F00700044308E0322000EB09106421EA
:1045D000B0FBF1F000F00F0004432C8106B0BDE801
:1045E000F08700000038014001468888C0F30800C9
:1045F0007047C1F3080282807047000010B53E4842
:1046000000683E49497988420DD03B4800683B49E3
:10461000487108464079012802D13949087502E0FD
:104620000020374908753648007D012818D13549E2
:104630008888FCF782F90446314881682046FCF7F7
:1046400033FA08D22E48808B322804DD01202A4913
:104650007C31086040E0002027497C3108603BE065
:1046600028498888FCF769F904462548816820466E
:10467000FCF710FA03D32248808B322818DA21493C
:104680008888FCF75AF904461D4881682046FCF7E3
:1046900001FA08D21948C078102804D10F20174910
:1046A000C87000200871002013497C31086013E0B5
:1046B000114808300068012803D10F497C31086097
:1046C0000AE00D480830006830B90C48007918B984
:1046D000002009497C3108600948007850B1084839
:1046E0000078012802D1FFF7F3F800BF00BF0020D7
:1046F00003490870012010BD1C812142A40B002039
:104700006C2F00209C0B002030B58DB02448007D1C
:1047100020B124A1684600F0BDF903E026A1684657
:1047200000F0B8F96A4600210846FEF7F1FC274878
:10473000828827A1684600F0ADF96A460221002070
:10474000FEF7E6FC16498868FCF745F90446224660
:104750000B4624A1684600F09DF96A46042100201A
:10476000FEF7D6FC0E48808B322804DA22A1684678
:1047700000F090F90CE024480068012804D123A13E
:10478000684600F087F903E024A1684600F082F94A
:104790006A4606210020FEF7BBFC01200DB030BDAB
:1047A0006C2F0020C4A3CABD203A20BAE3CEC2C4F5
:1047B000A3CABD2020000000C4A3CABD203A20D552
:1047C000FDB3A3C4A3CABD20200000009C0B0020A1
:1047D000CBAECEC2E3D0D6B5203A2025642020B699
:1047E000C8000000CBAE2020CEC2203A20252E32B9
:1047F000662020B6C8000000BFD5C9D5BEAFB8E658
:10480000212120200000000018812142C9D5CBAE13
:1048100020207E7E2020202000000000CEDED2EC72
:10482000B3A37E7E202020200000000000BFFEE712
:1048300010B586B00446012144F20400FFF73EF9AA
:104840004FF40070ADF8140003208DF81600182006
:104850008DF8170005A91C48FDF72DF84FF480606E
:10486000ADF8140004208DF8170005A91648FDF7CF
:1048700022F825208DF8000003208DF801008DF826
:10488000020001208DF803006846FEF781FA0194CA
:104890000020ADF80800ADF80A00ADF80C00ADF846
:1048A00010000C20ADF80E0001A90848FFF730FEFB
:1048B000012240F225510548FFF705FE012103487A
:1048C000FFF76FFD06B010BD000801400038014041
:1048D00010B586B0044601210420FFF7EFF801214E
:1048E0004804FFF7CBF82448FFF768FD0420ADF833
:1048F000100003208DF8120018208DF8130004A971
:104900001E48FCF7D8FF0820ADF8100004208DF8F1
:10491000130004A91948FCF7CEFF00940020ADF85D
:104920000400ADF80600ADF80800ADF80C000C204E
:10493000ADF80A0069461048FFF7EAFD01210E486C
:10494000FFF72FFD012240F225510B48FFF7BBFD79
:1049500026208DF8140002208DF8150003208DF814
:10496000160001208DF8170005A8FEF711FAFCF7D4
:1049700033FB06B010BD00000044004000080140B9
:1049800010B586B0044601210820FFF797F80121F1
:104990008804FFF773F818208DF817004FF4806033
:1049A000ADF8140003208DF8160005A91D48FCF78A
:1049B00082FF04208DF817004002ADF81400032098
:1049C0008DF8160005A91748FCF775FF0194002023
:1049D000ADF810000C20ADF80E000020ADF80C0072
:1049E000ADF80A00ADF8080001A90F48FFF790FDE7
:1049F00001210D48FFF7D5FC012240F225510A485C
:104A0000FFF761FD27208DF8000001208DF80300DD
:104A10008DF801008DF802006846FEF7B9F906B07E
:104A200010BD0000000C01400048004070B5044675
:104A30000D4600260DE014F8011B0748FFF7D9FDCD
:104A400000BF40210448FFF707FD0028F9D0701C83
:104A500086B2AE42EFDB70BD0048004010B50222C6
:104A6000024903480068FFF733FA10BDA00B00208D
:104A70003C0B00200FB4054B10B503A9044A029863
:104A800000F04CF910BC5DF814FB00005157000811
:104A9000640B00200FB4084B10B504A902AA0398B8
:104AA00000F03CF9044602A9002000F0CEFC2046AC
:104AB00010BC5DF814FB00004B54000830B528B161
:104AC000144C031F002021680A4605E0084630BD4B
:104AD0009A4203D810465268002AF9D1002800D023
:104AE00041680BD00468A3EB0005A54204D11B6804
:104AF0001C440346046002E0436000E023603AB1D6
:104B00001C68D51AA54203D115682C441C60526854
:104B10005A6030BDC40B00202DE9F04782460F4C8F
:104B200010480D4E0E4F001B4FF0000820F00705F7
:104B30004FF0010900221146504600F043FE0028C4
:104B400002D1306810B10020BDE8F0873C60C4E9B4
:104B50000058C6F80090EDE7C80B0020942F002005
:104B6000C40B0020903B002002E008C8121F08C1BF
:104B7000002AFAD170477047002001E001C1121FDE
:104B8000002AFBD1704700002DE9FF5F82B00021B1
:104B9000DDE90430020DDDF840B0034318D044F6DF
:104BA0001050A2F2FF3242431514119801281FD071
:104BB000A5EB0B00401C5FEA000A4FF000064E4FC9
:104BC000DFF83891B046504615D5CAF1000413E01D
:104BD000119801244AA3012801D16FEA0B01029820
:104BE000119AC0E90031C0E9024206B0BDE8F09F69
:104BF000CBF10000DFE704460021404A491842EBB0
:104C00000450CDE9001012E0E00707D032463B46E1
:104C100040464946FBF71FFE8046894632463B46E2
:104C200010461946FBF717FE06460F466410002C87
:104C3000EAD1DDE90401DDE90023BAF1000F06DA6B
:104C4000FBF709FE42464B46FBF705FE05E0FCF785
:104C5000AFF842464B46FCF7ABF804460E4600223E
:104C6000284BFBF7E3FE03D84FF0FF30014607E087
:104C70000022254B20463146FBF746FDFCF713F991
:104C8000102409E0002C0ADB0A220023FBF72CFF8A
:104C9000039B30321A55641E50EA0102F2D1641CA3
:104CA000039AC4F111031444119A012A03D001227A
:104CB00008430DD10AE0084304D000204FF0110B47
:104CC000119072E7A3EB0B056D1E0DE05B4504DD53
:104CD0004FF0000205F1010504E003DA4FF0000295
:104CE000A5F10105002AECD002981199C0E9023122
:104CF000C0E9004579E70000000014400000F03FE3
:104D0000300000000000F0430000E03F30380A2887
:104D100001D2012070470020704700002DE9FF4FAD
:104D200095B09B468946064600250FE2252877D197
:104D300000242746F84A0121059400E0044316F8B0
:104D4000013F203B01FA03F01042F7D130782A28C6
:104D500011D06FF02F033078A0F13002092A16D855
:104D6000059A44F0020402EB820203EB4202104473
:104D7000761C0590EFE759F8042B0592002A03DA18
:104D8000504244F40054059044F00204761C3078FC
:104D90002E2816D116F8010F44F004042A280DD04D
:104DA0006FF02F023078A0F13003092B09D807EB00
:104DB000870302EB4303C718761CF3E759F8047B1B
:104DC000761C30786C280FD006DC4C2817D0682869
:104DD0000DD06A2814D104E0742810D07A280FD19D
:104DE0000DE044F400140AE044F4801401E044F4BB
:104DF00040147278824202D104F58014761C761C2D
:104E0000307866280BD013DC582877D009DC0028CE
:104E100075D04528F6D04628F4D047281AD19DE110
:104E200018E0632835D0642879D0652812D195E13F
:104E3000702873D008DC6728F1D069286FD06E28FD
:104E40000DD06F2806D1B5E073282CD0752875D009
:104E5000782874D05A46179990476D1C75E1C4F3B1
:104E60000250022809D003280DD0D9F800100428D8
:104E70000DD00D6009F1040967E1D9F80010EA17B7
:104E8000C1E90052F6E7D9F800100D80F2E70D7085
:104E9000F0E719F8041B8DF8001000208DF80100D0
:104EA000EA46012003E059F804AB4FF0FF306107F8
:104EB0004FF0000102D40DE008F101018846B9422B
:104EC0000FDA8045F8DB1AF808100029F4D108E061
:104ED00008F1010188468142FADB1AF8081000291E
:104EE000F6D105985B46A0EB080721463846179A8D
:104EF00000F094FA284400EB080507E04DE029E1B2
:104F00000DE01AF8010B5A4617999047B8F10108BD
:104F1000F7D25B4621463846179A13E142E00A224F
:104F20000092C4F302524FF0000A022A08D059F846
:104F300004CB032A4FEAEC710AD00DE029E02AE005
:104F400009F1070121F00702F2E802C1914609E0E8
:104F50000FFA8CFC4FEAEC71042A03D14FFA8CFC57
:104F60004FEAEC71002907DA0A460021DCF1000C57
:104F700061EB02012D2202E0220504D52B228DF8DF
:104F80000420012203E0E20701D02022F7E7904647
:104F900059E00A2102E010220DE010214FF0000A32
:104FA00000910BE010224FF0000A44F0040408279F
:104FB000009203E008224FF0000A0092C4F302526C
:104FC000022A05D059F804CB0021032A08D009E0B1
:104FD00009F1070121F00702F2E802C1914605E05C
:104FE0001FFA8CFC042A01D10CF0FF0C4FF00008D2
:104FF000220728D5702806D0009B83F0100353EABF
:105000000A0305D00EE040228DF80420012208E0BA
:105010005CEA010206D030228DF804208DF80500EC
:1050200002229046009B83F0080353EA0A030AD148
:105030005CEA010201D1620705D530228DF8042017
:105040004FF001087F1E582804D034A003900EA80A
:1050500002900DE036A0F9E753466046009AFBF750
:1050600043FD84460398825C0298401E02900270C1
:105070005CEA0100F0D1029806A9081A00F1200AA2
:10508000600702D524F4803400E00127574502DD93
:10509000A7EB0A0000E0002000EB0A010090059851
:1050A0004144401A0590E00306D45B462146179A16
:1050B000059800F0B3F90544002706E001A85A4618
:1050C000C05D179990476D1C7F1C4745F6DBE003D8
:1050D0000CD55B462146179A059800F09FF90544C8
:1050E00004E030205A46179990476D1C0099481EDD
:1050F00000900029F5DC08E0029802995A460078F1
:10510000491C0291179990476D1CBAF10001AAF150
:10511000010AF1DC65E10000092801003031323379
:1051200034353637383961626364656600000000E3
:1051300030313233343536373839414243444546CD
:105140000000000000F058F90544761C3078002873
:105150007FF4ECAD19B02846BDE8F08F620700D4AB
:10516000062709F1070222F0070CFCE80223E146BA
:1051700003F000485FEA080C02D00FF2702C0DE03B
:105180005FEA045C02D50FF2682C07E05FEAC47C9A
:1051900002D00FF2602C01E0AFF2700C4FF0FF383C
:1051A00023F00043CDF850C065280CD006DC45281C
:1051B00009D046281DD047283DD13DE0662818D0AB
:1051C00067287ED138E00021112F01DB112000E09B
:1051D000781CCDE9000106A90EA8FFF7D5FCDDE992
:1051E0000F010E9A03910021009207F1010A049128
:1051F0004DE04FF000400097CDE9011006A90EA840
:10520000FFF7C2FCDDE90F0203920E9B1199002209
:10521000DDF80CA00093049211B9791C00EB010A8F
:10522000B7EB0A0004D4C0F1FF3007F1010A049083
:10523000AAEB0700019044E0012F00DA01270021CA
:10524000112F01DD112000E03846CDE9000106A94B
:105250000EA8FFF799FCDDE90F010E9A03910021DA
:1052600004910092BA4621070CD40399514500DA03
:105270008A46BAF1010F05DD009AAAF10101515CDD
:10528000302908D0B84202DA10F1040F06DA012101
:10529000CDE9011015E0AAF10101E9E7002805DCDC
:1052A000049901440491AAEB000102E0411C51451C
:1052B00000DD8A460499401A401C01904FF00040DE
:1052C0000290200704D40198504501DBCDF80480FA
:1052D00000208DF84F0002980DF14F07B0F1004FFC
:1052E00025D02B200E9002984FF0020800280CDAEF
:1052F000404202902D200E9007E00A210298FBF711
:10530000DDFB3031029007F8011DB8F10001A8F172
:105310000108F2DC02980028EFD1791E0E9808707F
:10532000307800F0200040F0450007F8020D12A888
:10533000C01B00F107081498007800B1012000EBB1
:105340000A01019801EBE07105984144401A401EA2
:105350000590E00306D45B462146179A059800F0B5
:105360005DF805441498007818B15A46179990478B
:105370006D1CE00324D55B462146179A059800F082
:105380004DF805441CE00498002807DBDDE9030123
:10539000884203DD0098405C179901E0179930209E
:1053A0005A469047049805F10105401C0490019865
:1053B000401E019004D12E205A46179990476D1C2B
:1053C000BAF10001AAF1010ADDDC05E017F8010BD2
:1053D0005A46179990476D1CB8F10001A8F10108D1
:1053E000F4DC5B462146179A0598ABE62D000000D9
:1053F0002B000000200000002DE9F04104460025AC
:105400001E461746880404D405E039462020B047DC
:105410006D1C641EF9D52846BDE8F0812DE9F041E8
:10542000044600251E469046C80301D5302700E0FB
:105430002027880404D505E041463846B0476D1C56
:10544000641EF9D52846BDE8F0810A68531C0B603C
:1054500010707047014609B1086808B9002070470C
:1054600019B1D1E90120904201D30846F7E702E0E3
:105470008868401C886041B1D1E90120904204D283
:105480008A680868805C2028F2DDD1E9012090421A
:1054900002D18868401E88600846E0E770B504467F
:1054A000002522E02568A08900F4807020B9A0685A
:1054B00010B1A068FFF7F2FFA08900F4807028B94E
:1054C000206918B10A4A206951688847A08900F408
:1054D000007028B9206A18B1054A206A51688847C7
:1054E00003484168204688472C46002CDAD170BD1D
:1054F0008C0B002070B504460D460022294620463C
:1055000000F036F970BD70B5044628202168884740
:1055100005461DB128212846FAF745FE284670BDEC
:1055200010B5044600221146204600F06BF810BD6D
:105530002DE9F0478AB004460E46154698461C21D0
:1055400003A8FAF730FE002700202C4908604860C5
:1055500004B106B932E00394049600200590284A6D
:1055600007CA07AB07C32648FFF7CDFF074607B9B1
:1055700024E003A800F07EFD8246FFF76BFF814622
:105580004946384600F0A2FC00B917E0B8F1000F18
:105590000BD003A8FFF75EFFDDE90410884203D2B9
:1055A00005990398405C00B108E01DB10599039886
:1055B0000844286038460AB0BDE8F08717B138467D
:1055C000FFF76CFFC4B1019400200290DDE90410E4
:1055D000884202D20598029004E0049810B1049821
:1055E000401E02901DB1DDE9010108442860034816
:1055F000DDE9011206C000BF0020DCE7840B0020BB
:105600008C0B00202DE9F04104460D46164614B9D6
:105610000020BDE8F0812046FAF7F8FD471C33462C
:105620002A4639462046FFF783FFF2E770B5044665
:105630000D4604B10DB9012070BDAC4201D100206E
:10564000FAE705E0207808B90020F5E7641C6D1C36
:105650002078FAF789FD06462878FAF785FD864214
:10566000F0D02078FAF780FD06462878FAF77CFD1E
:10567000301AE1E710B56FF00400FEF795FB0A4819
:1056800000680A49B0FBF1F0094908700846007843
:1056900000EB4001C1EBC0104FF6FF7101EAC00002
:1056A0000449088010BD00000400002000127A00A8
:1056B000600B0020620B00200146114A12884A4309
:1056C0004FF0E0235A6100229A611A46126942F0B3
:1056D00001021A6100BF4FF0E022106900F00102E0
:1056E0001AB100F48032002AF5D04FF0E02212699E
:1056F00022F001024FF0E0231A6100229A61704704
:10570000620B00200146114A12784A434FF0E02311
:105710005A6100229A611A46126942F001021A6126
:1057200000BF4FF0E022106900F001021AB100F44E
:105730008032002AF5D04FF0E022126922F00102F7
:105740004FF0E0231A6100229A617047600B00203D
:1057500000BF054A128802F04002002AF9D0C2B206
:10576000014B1B1D1A807047003801402E207047E6
:105770002DE9F04105460E461746002405B116B93D
:105780000020BDE8F081AC685FB100E024688CB116
:10579000206A78B13046216AFAF73FFD0028F5D13A
:1057A00008E000E024682CB13046216AFFF73EFF94
:1057B0000028F7D10CB1206A08B90020E1E72046A3
:1057C000DFE700002DE9F0410B3020F00706104D17
:1057D00019E02068B04215D3B0420AD9871B201DBA
:1057E000D4F80480FAF7C6FCA019C0E90078286054
:1057F00004E060682860201DFAF7BCFC201D2660CC
:10580000BDE8F081251D2C68002CE2D10020F7E7CF
:10581000C40B00200024FEF79FFAFCF7C9F9FDF73E
:10582000F9FA01211548FEF77BFCFCF725F94FF446
:10583000FA70FFF741FFFCF71FF91DE010480078F0
:1058400010B901200E4908700E48007820B9FCF705
:105850001BF901200B4908700B48007810B9012092
:105860000949087000F0E6FC0020FBF7FBFD044648
:1058700014B12046FDF74CFEE0E7000000080040B0
:10588000C30B0020C20B0020C10B00202DE9F0410A
:105890000646002500273046FFF742FE05462DB993
:1058A00023A0FFF7E7F80020BDE8F08124A12846F7
:1058B000FFF720FE047D23A12846FFF71BFE0746C5
:1058C000012C06D0022C0CD0032C14D0042C28D18F
:1058D00023E01EA13846FFF70DFE007D1D49087527
:1058E00020E01DA13846FFF705FE808A1C4988800C
:1058F000FFF7B4F816E01748007D68B919A13846DB
:10590000FFF7F8FD4069184908601848D0F81801F9
:1059100010B901201649087104E0601C0D49087097
:1059200000E000BF00BF2846FFF7B8FD0120BBE73D
:105930007061727365206661696C2E0A0000000058
:10594000636D64006461746100000000666C6167EF
:10595000650000006C2F002074656D705F7600009C
:105960009C0B0020686F74009881214200802142C6
:10597000A40B00202DE9F04180460C4600250027AD
:10598000E068B0F57A7F02D30020BDE8F081E068DE
:10599000401CE060A1682068405C5B2800D05FE0AC
:1059A000A068401CA0602046FFF754FD4CB1D4E92C
:1059B0000110884205D2A1682068405C5D2800D1B2
:1059C0003FE01CB1D4E90110884203D3A068401E17
:1059D000A06045E0A068401EA06000BF04F1100078
:1059E000FFF791FD064606B93AE015B93546374648
:1059F00002E03E6077603746A068401CA060204609
:105A0000FFF728FD2146384600F060FA00B927E08C
:105A10002046FFF71FFD44B1D4E90110884204D2AB
:105A2000A1682068405C2C28D8D044B1D4E901108A
:105A3000884204D2A1682068405C5D2800D00FE055
:105A400000BFE068401EE06005B16F602020C8F82C
:105A50000C00C8F80850A068401CA060012094E722
:105A600015B12846FFF71AFD00208EE702460023F5
:105A7000002100BF23E0505C302806DB505C392851
:105A800003DC505C3038034415E0505C412806DBF1
:105A9000505C462803DC505C373803440BE0505C14
:105AA000612806DB505C662803DC505C57380344F1
:105AB00001E000207047032900D21B01491C042982
:105AC000D9D31846F6E700002DE9F04391B080469F
:105AD0000C4600BF00201090FFF748FE81460025CD
